{
  "_format": "hh-sol-artifact-1",
  "contractName": "GetRequestData",
  "sourceName": "contracts/utils/GetRequestData.sol",
  "abi": [
    {
      "inputs": [
        {
          "internalType": "address",
          "name": "_owner",
          "type": "address"
        },
        {
          "internalType": "address",
          "name": "_spender",
          "type": "address"
        }
      ],
      "name": "allowance",
      "outputs": [
        {
          "internalType": "uint256",
          "name": "",
          "type": "uint256"
        }
      ],
      "stateMutability": "view",
      "type": "function"
    },
    {
      "inputs": [
        {
          "internalType": "address",
          "name": "_owner",
          "type": "address"
        }
      ],
      "name": "balanceOf",
      "outputs": [
        {
          "internalType": "uint256",
          "name": "",
          "type": "uint256"
        }
      ],
      "stateMutability": "view",
      "type": "function"
    },
    {
      "inputs": [],
      "name": "canGetVariables",
      "outputs": [
        {
          "internalType": "bool",
          "name": "",
          "type": "bool"
        }
      ],
      "stateMutability": "view",
      "type": "function"
    },
    {
      "inputs": [
        {
          "internalType": "bytes32",
          "name": "_data",
          "type": "bytes32"
        }
      ],
      "name": "getAddressStorage",
      "outputs": [
        {
          "internalType": "address",
          "name": "",
          "type": "address"
        }
      ],
      "stateMutability": "view",
      "type": "function"
    },
    {
      "inputs": [],
      "name": "getCurrentVariables",
      "outputs": [
        {
          "internalType": "bytes32",
          "name": "",
          "type": "bytes32"
        },
        {
          "internalType": "uint256",
          "name": "",
          "type": "uint256"
        },
        {
          "internalType": "uint256",
          "name": "",
          "type": "uint256"
        },
        {
          "internalType": "string",
          "name": "",
          "type": "string"
        }
      ],
      "stateMutability": "view",
      "type": "function"
    },
    {
      "inputs": [
        {
          "internalType": "bytes32",
          "name": "_data",
          "type": "bytes32"
        }
      ],
      "name": "getUintStorage",
      "outputs": [
        {
          "internalType": "uint256",
          "name": "",
          "type": "uint256"
        }
      ],
      "stateMutability": "view",
      "type": "function"
    },
    {
      "inputs": [],
      "name": "totalSupply",
      "outputs": [
        {
          "internalType": "uint256",
          "name": "",
          "type": "uint256"
        }
      ],
      "stateMutability": "view",
      "type": "function"
    }
  ],
  "bytecode": "0x608060405234801561001057600080fd5b506108b6806100206000396000f3fe608060405234801561001057600080fd5b506004361061007d5760003560e01c8063a22e407a1161005b578063a22e407a14610100578063afc3602b14610121578063c4dab31714610151578063dd62ed3e1461016f5761007d565b806318160ddd146100825780632a90bbb2146100a057806370a08231146100d0575b600080fd5b61008a61019f565b6040516100979190610587565b60405180910390f35b6100ba60048036038101906100b591906105dd565b6101b0565b6040516100c7919061064b565b60405180910390f35b6100ea60048036038101906100e59190610692565b6101cd565b6040516100f79190610587565b60405180910390f35b6101086101ea565b604051610118949392919061075e565b60405180910390f35b61013b600480360381019061013691906105dd565b610209565b6040516101489190610587565b60405180910390f35b610159610226565b60405161016691906107c5565b60405180910390f35b610189600480360381019061018491906107e0565b610237565b6040516101969190610587565b60405180910390f35b60006101ab6000610257565b905090565b60006101c682600061029690919063ffffffff16565b9050919050565b60006101e38260006102d690919063ffffffff16565b9050919050565b600080600060606101fb6000610322565b935093509350935090919293565b600061021f82600061048290919063ffffffff16565b9050919050565b600061023260006104a2565b905090565b600061024f838360006104e49092919063ffffffff16565b905092915050565b60008160000160007f7c80aa9fdbfaf9615e4afc7f5f722e265daca5ccc655360fa5ccacf9c267936d8152602001908152602001600020549050919050565b600082600101600083815260200190815260200160002060009054906101000a900473ffffffffffffffffffffffffffffffffffffffff16905092915050565b60008260050160008373ffffffffffffffffffffffffffffffffffffffff1673ffffffffffffffffffffffffffffffffffffffff16815260200190815260200160002054905092915050565b6000806000606084600201548560000160007f7584d7d8701714da9c117f5bf30af73b0b88aca5338a84a21eb28de2fe0d93b88152602001908152602001600020548660000160007fb12aff7664b16cb99339be399b863feecd64d14817be7e1f042f97e3f358e64e8152602001908152602001600020548760040160008960000160007f7584d7d8701714da9c117f5bf30af73b0b88aca5338a84a21eb28de2fe0d93b881526020019081526020016000205481526020019081526020016000206000018080546103f39061084f565b80601f016020809104026020016040519081016040528092919081815260200182805461041f9061084f565b801561046c5780601f106104415761010080835404028352916020019161046c565b820191906000526020600020905b81548152906001019060200180831161044f57829003601f168201915b5050505050905093509350935093509193509193565b600082600001600083815260200190815260200160002054905092915050565b6000808260000160007f9d35db82da5d0cf70eb254e4850bba2332d9a0dd52374be5ffb3866e6f97269b81526020019081526020016000205414159050919050565b60008360060160008473ffffffffffffffffffffffffffffffffffffffff1673ffffffffffffffffffffffffffffffffffffffff16815260200190815260200160002060008373ffffffffffffffffffffffffffffffffffffffff1673ffffffffffffffffffffffffffffffffffffffff1681526020019081526020016000205490509392505050565b6000819050919050565b6105818161056e565b82525050565b600060208201905061059c6000830184610578565b92915050565b600080fd5b6000819050919050565b6105ba816105a7565b81146105c557600080fd5b50565b6000813590506105d7816105b1565b92915050565b6000602082840312156105f3576105f26105a2565b5b6000610601848285016105c8565b91505092915050565b600073ffffffffffffffffffffffffffffffffffffffff82169050919050565b60006106358261060a565b9050919050565b6106458161062a565b82525050565b6000602082019050610660600083018461063c565b92915050565b61066f8161062a565b811461067a57600080fd5b50565b60008135905061068c81610666565b92915050565b6000602082840312156106a8576106a76105a2565b5b60006106b68482850161067d565b91505092915050565b6106c8816105a7565b82525050565b600081519050919050565b600082825260208201905092915050565b60005b838110156107085780820151818401526020810190506106ed565b60008484015250505050565b6000601f19601f8301169050919050565b6000610730826106ce565b61073a81856106d9565b935061074a8185602086016106ea565b61075381610714565b840191505092915050565b600060808201905061077360008301876106bf565b6107806020830186610578565b61078d6040830185610578565b818103606083015261079f8184610725565b905095945050505050565b60008115159050919050565b6107bf816107aa565b82525050565b60006020820190506107da60008301846107b6565b92915050565b600080604083850312156107f7576107f66105a2565b5b60006108058582860161067d565b92505060206108168582860161067d565b9150509250929050565b7f4e487b7100000000000000000000000000000000000000000000000000000000600052602260045260246000fd5b6000600282049050600182168061086757607f821691505b60208210810361087a57610879610820565b5b5091905056fea264697066735822122052b04074fb7d034dd210b5205c8b266fef335b90108aa8bb780c646d71bb625f64736f6c63430008130033",
  "linkReferences": {},
  "deployedLinkReferences": {}
}