{
  "contractName": "CoreFunctionHelper",
  "abi": [
    {
      "inputs": [
        {
          "internalType": "address",
          "name": "_newRequestAddress",
          "type": "address"
        }
      ],
      "stateMutability": "nonpayable",
      "type": "constructor"
    },
    {
      "anonymous": false,
      "inputs": [
        {
          "indexed": false,
          "internalType": "uint256",
          "name": "id",
          "type": "uint256"
        },
        {
          "indexed": false,
          "internalType": "uint256",
          "name": "prediction",
          "type": "uint256"
        },
        {
          "indexed": false,
          "internalType": "uint256",
          "name": "nonce",
          "type": "uint256"
        }
      ],
      "name": "NewBlock",
      "type": "event"
    },
    {
      "anonymous": false,
      "inputs": [
        {
          "indexed": false,
          "internalType": "uint256",
          "name": "id",
          "type": "uint256"
        },
        {
          "indexed": false,
          "internalType": "string",
          "name": "dataCID",
          "type": "string"
        },
        {
          "indexed": false,
          "internalType": "uint256",
          "name": "tip",
          "type": "uint256"
        }
      ],
      "name": "ReceivedRequest",
      "type": "event"
    },
    {
      "stateMutability": "payable",
      "type": "fallback",
      "payable": true
    },
    {
      "inputs": [
        {
          "internalType": "address",
          "name": "_owner",
          "type": "address"
        },
        {
          "internalType": "address",
          "name": "_spender",
          "type": "address"
        }
      ],
      "name": "allowance",
      "outputs": [
        {
          "internalType": "uint256",
          "name": "",
          "type": "uint256"
        }
      ],
      "stateMutability": "view",
      "type": "function",
      "constant": true
    },
    {
      "inputs": [
        {
          "internalType": "address",
          "name": "_owner",
          "type": "address"
        }
      ],
      "name": "balanceOf",
      "outputs": [
        {
          "internalType": "uint256",
          "name": "",
          "type": "uint256"
        }
      ],
      "stateMutability": "view",
      "type": "function",
      "constant": true
    },
    {
      "inputs": [],
      "name": "canGetVariables",
      "outputs": [
        {
          "internalType": "bool",
          "name": "",
          "type": "bool"
        }
      ],
      "stateMutability": "view",
      "type": "function",
      "constant": true
    },
    {
      "inputs": [
        {
          "internalType": "bytes32",
          "name": "_data",
          "type": "bytes32"
        }
      ],
      "name": "getAddressStorage",
      "outputs": [
        {
          "internalType": "address",
          "name": "",
          "type": "address"
        }
      ],
      "stateMutability": "view",
      "type": "function",
      "constant": true
    },
    {
      "inputs": [],
      "name": "getCurrentVariables",
      "outputs": [
        {
          "internalType": "bytes32",
          "name": "",
          "type": "bytes32"
        },
        {
          "internalType": "uint256",
          "name": "",
          "type": "uint256"
        },
        {
          "internalType": "uint256",
          "name": "",
          "type": "uint256"
        },
        {
          "internalType": "string",
          "name": "",
          "type": "string"
        }
      ],
      "stateMutability": "view",
      "type": "function",
      "constant": true
    },
    {
      "inputs": [
        {
          "internalType": "bytes32",
          "name": "_data",
          "type": "bytes32"
        }
      ],
      "name": "getUintStorage",
      "outputs": [
        {
          "internalType": "uint256",
          "name": "",
          "type": "uint256"
        }
      ],
      "stateMutability": "view",
      "type": "function",
      "constant": true
    },
    {
      "inputs": [],
      "name": "totalSupply",
      "outputs": [
        {
          "internalType": "uint256",
          "name": "",
          "type": "uint256"
        }
      ],
      "stateMutability": "view",
      "type": "function",
      "constant": true
    },
    {
      "stateMutability": "payable",
      "type": "receive",
      "payable": true
    },
    {
      "inputs": [
        {
          "internalType": "address",
          "name": "_newRequest",
          "type": "address"
        }
      ],
      "name": "updateRequest",
      "outputs": [],
      "stateMutability": "nonpayable",
      "type": "function"
    },
    {
      "inputs": [
        {
          "internalType": "address",
          "name": "_newOwner",
          "type": "address"
        }
      ],
      "name": "updateOwner",
      "outputs": [],
      "stateMutability": "nonpayable",
      "type": "function"
    }
  ],
  "bytecode": "0x608060405234801561001057600080fd5b50604051610ec4380380610ec483398181016040528101906100329190610185565b80600060010160007f220ad9c5a68385514a63a3fa7cd8b0366c6391f0c28e3e9ffe987a69466767fb815260200190815260200160002060006101000a81548173ffffffffffffffffffffffffffffffffffffffff021916908373ffffffffffffffffffffffffffffffffffffffff16021790555033600060010160007f02016836a56b71f0d02689e69e326f4f4c1b9057164ef592671cf0d37c8040c0815260200190815260200160002060006101000a81548173ffffffffffffffffffffffffffffffffffffffff021916908373ffffffffffffffffffffffffffffffffffffffff160217905550506101b2565b600080fd5b600073ffffffffffffffffffffffffffffffffffffffff82169050919050565b600061015282610127565b9050919050565b61016281610147565b811461016d57600080fd5b50565b60008151905061017f81610159565b92915050565b60006020828403121561019b5761019a610122565b5b60006101a984828501610170565b91505092915050565b610d03806101c16000396000f3fe60806040526004361061008a5760003560e01c8063a1f772b011610059578063a1f772b0146101e0578063a22e407a14610209578063afc3602b14610237578063c4dab31714610274578063dd62ed3e1461029f57610091565b806318160ddd146101125780632a90bbb21461013d57806370a082311461017a578063880cdc31146101b757610091565b3661009157005b60008060010160007f220ad9c5a68385514a63a3fa7cd8b0366c6391f0c28e3e9ffe987a69466767fb815260200190815260200160002060009054906101000a900473ffffffffffffffffffffffffffffffffffffffff16905060405136600082376000803683855af43d806000843e816000811461010e578184f35b8184fd5b34801561011e57600080fd5b506101276102dc565b6040516101349190610968565b60405180910390f35b34801561014957600080fd5b50610164600480360381019061015f91906109be565b6102ed565b6040516101719190610a2c565b60405180910390f35b34801561018657600080fd5b506101a1600480360381019061019c9190610a73565b61030a565b6040516101ae9190610968565b60405180910390f35b3480156101c357600080fd5b506101de60048036038101906101d99190610a73565b610327565b005b3480156101ec57600080fd5b5061020760048036038101906102029190610a73565b61033e565b005b34801561021557600080fd5b5061021e610355565b60405161022e9493929190610b3f565b60405180910390f35b34801561024357600080fd5b5061025e600480360381019061025991906109be565b610374565b60405161026b9190610968565b60405180910390f35b34801561028057600080fd5b50610289610391565b6040516102969190610ba6565b60405180910390f35b3480156102ab57600080fd5b506102c660048036038101906102c19190610bc1565b6103a2565b6040516102d39190610968565b60405180910390f35b60006102e860006103c2565b905090565b600061030382600061040190919063ffffffff16565b9050919050565b600061032082600061044190919063ffffffff16565b9050919050565b61033b81600061048d90919063ffffffff16565b50565b6103528160006105c890919063ffffffff16565b50565b600080600060606103666000610703565b935093509350935090919293565b600061038a82600061086390919063ffffffff16565b9050919050565b600061039d6000610883565b905090565b60006103ba838360006108c59092919063ffffffff16565b905092915050565b60008160000160007f7c80aa9fdbfaf9615e4afc7f5f722e265daca5ccc655360fa5ccacf9c267936d8152602001908152602001600020549050919050565b600082600101600083815260200190815260200160002060009054906101000a900473ffffffffffffffffffffffffffffffffffffffff16905092915050565b60008260050160008373ffffffffffffffffffffffffffffffffffffffff1673ffffffffffffffffffffffffffffffffffffffff16815260200190815260200160002054905092915050565b8160010160007f02016836a56b71f0d02689e69e326f4f4c1b9057164ef592671cf0d37c8040c0815260200190815260200160002060009054906101000a900473ffffffffffffffffffffffffffffffffffffffff1673ffffffffffffffffffffffffffffffffffffffff163373ffffffffffffffffffffffffffffffffffffffff1614610550576040517f08c379a000000000000000000000000000000000000000000000000000000000815260040161054790610c4d565b60405180910390fd5b808260010160007f02016836a56b71f0d02689e69e326f4f4c1b9057164ef592671cf0d37c8040c0815260200190815260200160002060006101000a81548173ffffffffffffffffffffffffffffffffffffffff021916908373ffffffffffffffffffffffffffffffffffffffff1602179055505050565b8160010160007f02016836a56b71f0d02689e69e326f4f4c1b9057164ef592671cf0d37c8040c0815260200190815260200160002060009054906101000a900473ffffffffffffffffffffffffffffffffffffffff1673ffffffffffffffffffffffffffffffffffffffff163373ffffffffffffffffffffffffffffffffffffffff161461068b576040517f08c379a000000000000000000000000000000000000000000000000000000000815260040161068290610c4d565b60405180910390fd5b808260010160007f220ad9c5a68385514a63a3fa7cd8b0366c6391f0c28e3e9ffe987a69466767fb815260200190815260200160002060006101000a81548173ffffffffffffffffffffffffffffffffffffffff021916908373ffffffffffffffffffffffffffffffffffffffff1602179055505050565b6000806000606084600201548560000160007f7584d7d8701714da9c117f5bf30af73b0b88aca5338a84a21eb28de2fe0d93b88152602001908152602001600020548660000160007fb12aff7664b16cb99339be399b863feecd64d14817be7e1f042f97e3f358e64e8152602001908152602001600020548760040160008960000160007f7584d7d8701714da9c117f5bf30af73b0b88aca5338a84a21eb28de2fe0d93b881526020019081526020016000205481526020019081526020016000206000018080546107d490610c9c565b80601f016020809104026020016040519081016040528092919081815260200182805461080090610c9c565b801561084d5780601f106108225761010080835404028352916020019161084d565b820191906000526020600020905b81548152906001019060200180831161083057829003601f168201915b5050505050905093509350935093509193509193565b600082600001600083815260200190815260200160002054905092915050565b6000808260000160007f9d35db82da5d0cf70eb254e4850bba2332d9a0dd52374be5ffb3866e6f97269b81526020019081526020016000205414159050919050565b60008360060160008473ffffffffffffffffffffffffffffffffffffffff1673ffffffffffffffffffffffffffffffffffffffff16815260200190815260200160002060008373ffffffffffffffffffffffffffffffffffffffff1673ffffffffffffffffffffffffffffffffffffffff1681526020019081526020016000205490509392505050565b6000819050919050565b6109628161094f565b82525050565b600060208201905061097d6000830184610959565b92915050565b600080fd5b6000819050919050565b61099b81610988565b81146109a657600080fd5b50565b6000813590506109b881610992565b92915050565b6000602082840312156109d4576109d3610983565b5b60006109e2848285016109a9565b91505092915050565b600073ffffffffffffffffffffffffffffffffffffffff82169050919050565b6000610a16826109eb565b9050919050565b610a2681610a0b565b82525050565b6000602082019050610a416000830184610a1d565b92915050565b610a5081610a0b565b8114610a5b57600080fd5b50565b600081359050610a6d81610a47565b92915050565b600060208284031215610a8957610a88610983565b5b6000610a9784828501610a5e565b91505092915050565b610aa981610988565b82525050565b600081519050919050565b600082825260208201905092915050565b60005b83811015610ae9578082015181840152602081019050610ace565b60008484015250505050565b6000601f19601f8301169050919050565b6000610b1182610aaf565b610b1b8185610aba565b9350610b2b818560208601610acb565b610b3481610af5565b840191505092915050565b6000608082019050610b546000830187610aa0565b610b616020830186610959565b610b6e6040830185610959565b8181036060830152610b808184610b06565b905095945050505050565b60008115159050919050565b610ba081610b8b565b82525050565b6000602082019050610bbb6000830184610b97565b92915050565b60008060408385031215610bd857610bd7610983565b5b6000610be685828601610a5e565b9250506020610bf785828601610a5e565b9150509250929050565b7f4e6f7420617574686f72697365642e0000000000000000000000000000000000600082015250565b6000610c37600f83610aba565b9150610c4282610c01565b602082019050919050565b60006020820190508181036000830152610c6681610c2a565b9050919050565b7f4e487b7100000000000000000000000000000000000000000000000000000000600052602260045260246000fd5b60006002820490506001821680610cb457607f821691505b602082108103610cc757610cc6610c6d565b5b5091905056fea264697066735822122076a8f16f12d9b68f6a3cd8bc945d423e73c442759dcff7374d0cbcfb0297d09e64736f6c63430008100033",
  "immutableReferences": {},
  "source": "// SPDX-License-Identifier: UNLICENSED\npragma solidity ^0.8.0;\n\nimport \"./GetRequestData.sol\";\n\ncontract CoreFunctionHelper is GetRequestData{\n    using RequestDataStorageLib for  RequestDataStorageLib.RequestStorageStruct;\n\n    constructor(address _newRequestAddress) {\n        data.addressStorage[keccak256('ReqAddress')] = _newRequestAddress;\n        data.addressStorage[keccak256('owner')] = msg.sender;\n    }\n\n    //Event sharing\n    event NewBlock(uint256 id, uint256 prediction, uint256 nonce);\n    event ReceivedRequest(uint256 id, string dataCID, uint256 tip);\n\n\n    function updateRequest(address _newRequest) external {\n        data.updateRequest(_newRequest);\n    }\n\n    function updateOwner(address _newOwner) external {\n        data.updateOwner(_newOwner);\n    }\n\n    fallback() external payable {\n        address _impl = data.addressStorage[keccak256('ReqAddress')];\n\n        assembly {\n            let ptr := mload(0x40)\n            calldatacopy(ptr, 0, calldatasize())\n            let result := delegatecall(gas(), _impl, ptr, calldatasize(), 0, 0)\n            let size := returndatasize()\n            returndatacopy(ptr, 0, size)\n\n            switch result\n            case 0 { revert(ptr, size) }\n            default { return(ptr, size) }\n        }\n    }\n\n    receive() external payable {}\n}\n",
  "sourcePath": "/home/arjun/Code/Projects/DappV1-NORSA/contracts/utils/CoreFunctionHelper.sol",
  "compiler": {
    "name": "solc",
    "version": "0.8.16+commit.07a7930e.Emscripten.clang"
  },
  "schemaVersion": "3.4.13",
  "updatedAt": "2023-06-26T18:50:20.658Z",
  "networkType": "ethereum",
  "devdoc": {
    "kind": "dev",
    "methods": {},
    "version": 1
  },
  "userdoc": {
    "kind": "user",
    "methods": {},
    "version": 1
  }
}