{
  "contractName": "CoreFunctions",
  "abi": [
    {
      "inputs": [
        {
          "internalType": "string",
          "name": "_dataCID",
          "type": "string"
        },
        {
          "internalType": "uint256",
          "name": "_tip",
          "type": "uint256"
        }
      ],
      "name": "requestPrediction",
      "outputs": [
        {
          "internalType": "uint256",
          "name": "",
          "type": "uint256"
        }
      ],
      "stateMutability": "nonpayable",
      "type": "function"
    },
    {
      "inputs": [
        {
          "internalType": "uint256",
          "name": "_id",
          "type": "uint256"
        },
        {
          "internalType": "uint256",
          "name": "_prediction",
          "type": "uint256"
        },
        {
          "internalType": "uint256",
          "name": "_nonce",
          "type": "uint256"
        }
      ],
      "name": "submitMiningSolution",
      "outputs": [],
      "stateMutability": "nonpayable",
      "type": "function"
    },
    {
      "inputs": [],
      "name": "name",
      "outputs": [
        {
          "internalType": "string",
          "name": "",
          "type": "string"
        }
      ],
      "stateMutability": "pure",
      "type": "function",
      "constant": true
    },
    {
      "inputs": [],
      "name": "symbol",
      "outputs": [
        {
          "internalType": "string",
          "name": "",
          "type": "string"
        }
      ],
      "stateMutability": "pure",
      "type": "function",
      "constant": true
    },
    {
      "inputs": [],
      "name": "decimals",
      "outputs": [
        {
          "internalType": "uint256",
          "name": "",
          "type": "uint256"
        }
      ],
      "stateMutability": "pure",
      "type": "function",
      "constant": true
    },
    {
      "inputs": [
        {
          "internalType": "address",
          "name": "_to",
          "type": "address"
        },
        {
          "internalType": "uint256",
          "name": "_value",
          "type": "uint256"
        }
      ],
      "name": "transferTest",
      "outputs": [
        {
          "internalType": "bool",
          "name": "",
          "type": "bool"
        }
      ],
      "stateMutability": "nonpayable",
      "type": "function"
    },
    {
      "inputs": [
        {
          "internalType": "address",
          "name": "_from",
          "type": "address"
        },
        {
          "internalType": "address",
          "name": "_to",
          "type": "address"
        },
        {
          "internalType": "uint256",
          "name": "_value",
          "type": "uint256"
        }
      ],
      "name": "transferFromTest",
      "outputs": [
        {
          "internalType": "bool",
          "name": "",
          "type": "bool"
        }
      ],
      "stateMutability": "nonpayable",
      "type": "function"
    },
    {
      "inputs": [
        {
          "internalType": "address",
          "name": "_to",
          "type": "address"
        },
        {
          "internalType": "uint256",
          "name": "_value",
          "type": "uint256"
        }
      ],
      "name": "transfer",
      "outputs": [
        {
          "internalType": "bool",
          "name": "",
          "type": "bool"
        }
      ],
      "stateMutability": "nonpayable",
      "type": "function"
    },
    {
      "inputs": [
        {
          "internalType": "address",
          "name": "_from",
          "type": "address"
        },
        {
          "internalType": "address",
          "name": "_to",
          "type": "address"
        },
        {
          "internalType": "uint256",
          "name": "_value",
          "type": "uint256"
        }
      ],
      "name": "transferFrom",
      "outputs": [
        {
          "internalType": "bool",
          "name": "",
          "type": "bool"
        }
      ],
      "stateMutability": "nonpayable",
      "type": "function"
    },
    {
      "inputs": [
        {
          "internalType": "address",
          "name": "_spender",
          "type": "address"
        },
        {
          "internalType": "uint256",
          "name": "_value",
          "type": "uint256"
        }
      ],
      "name": "approve",
      "outputs": [
        {
          "internalType": "bool",
          "name": "",
          "type": "bool"
        }
      ],
      "stateMutability": "nonpayable",
      "type": "function"
    }
  ],
  "bytecode": "0x608060405234801561001057600080fd5b50612776806100206000396000f3fe608060405234801561001057600080fd5b506004361061009e5760003560e01c80633982024411610066578063398202441461016f57806371f4ed5e1461018b57806375dce2b3146101bb57806395d89b41146101eb578063a9059cbb146102095761009e565b806306fdde03146100a3578063095ea7b3146100c157806323b872dd146100f15780632d36e22414610121578063313ce56714610151575b600080fd5b6100ab610239565b6040516100b89190611a6a565b60405180910390f35b6100db60048036038101906100d69190611b2a565b610276565b6040516100e89190611b85565b60405180910390f35b61010b60048036038101906101069190611ba0565b610296565b6040516101189190611b85565b60405180910390f35b61013b60048036038101906101369190611b2a565b6102b9565b6040516101489190611b85565b60405180910390f35b6101596102d9565b6040516101669190611c02565b60405180910390f35b61018960048036038101906101849190611c1d565b6102e2565b005b6101a560048036038101906101a09190611cd5565b6102ff565b6040516101b29190611c02565b60405180910390f35b6101d560048036038101906101d09190611ba0565b610364565b6040516101e29190611b85565b60405180910390f35b6101f3610387565b6040516102009190611a6a565b60405180910390f35b610223600480360381019061021e9190611b2a565b6103c4565b6040516102309190611b85565b60405180910390f35b60606040518060400160405280600b81526020017f417273687520546f6b656e000000000000000000000000000000000000000000815250905090565b600061028e838360006103e49092919063ffffffff16565b905092915050565b60006102b084848460006104d9909392919063ffffffff16565b90509392505050565b60006102d1838360006106499092919063ffffffff16565b905092915050565b60006012905090565b6102fa8383836000610662909392919063ffffffff16565b505050565b600061035b84848080601f016020809104026020016040519081016040528093929190818152602001838380828437600081840152601f19601f820116905080830192505050505050508360006108229092919063ffffffff16565b90509392505050565b600061037e8484846000610cc9909392919063ffffffff16565b90509392505050565b60606040518060400160405280600381526020017f4152530000000000000000000000000000000000000000000000000000000000815250905090565b60006103dc83836000610ce39092919063ffffffff16565b905092915050565b6000818460060160003373ffffffffffffffffffffffffffffffffffffffff1673ffffffffffffffffffffffffffffffffffffffff16815260200190815260200160002060008573ffffffffffffffffffffffffffffffffffffffff1673ffffffffffffffffffffffffffffffffffffffff168152602001908152602001600020819055508273ffffffffffffffffffffffffffffffffffffffff163373ffffffffffffffffffffffffffffffffffffffff167f8c5be1e5ebec7d5bd14f71427d1e84f3dd0314c0f7b2291e5b200ac8c7c3b925846040516104c69190611c02565b60405180910390a3600190509392505050565b6000818560060160008673ffffffffffffffffffffffffffffffffffffffff1673ffffffffffffffffffffffffffffffffffffffff16815260200190815260200160002060003373ffffffffffffffffffffffffffffffffffffffff1673ffffffffffffffffffffffffffffffffffffffff16815260200190815260200160002054101561059c576040517f08c379a000000000000000000000000000000000000000000000000000000000815260040161059390611da7565b60405180910390fd5b818560060160008673ffffffffffffffffffffffffffffffffffffffff1673ffffffffffffffffffffffffffffffffffffffff16815260200190815260200160002060003373ffffffffffffffffffffffffffffffffffffffff1673ffffffffffffffffffffffffffffffffffffffff168152602001908152602001600020600082825461062a9190611df6565b9250508190555061063d85858585610cfc565b60019050949350505050565b600061065784338585610cfc565b600190509392505050565b600084600401600085815260200190815260200160002090508060090160003373ffffffffffffffffffffffffffffffffffffffff1673ffffffffffffffffffffffffffffffffffffffff16815260200190815260200160002060009054906101000a900460ff161561070a576040517f08c379a000000000000000000000000000000000000000000000000000000000815260040161070190611e9c565b60405180910390fd5b6107148583610ea7565b828160040182600301546002811061072f5761072e611ebc565b5b018190555060018160090160003373ffffffffffffffffffffffffffffffffffffffff1673ffffffffffffffffffffffffffffffffffffffff16815260200190815260200160002060006101000a81548160ff02191690831515021790555033816006018260030154600281106107a9576107a8611ebc565b5b0160006101000a81548173ffffffffffffffffffffffffffffffffffffffff021916908373ffffffffffffffffffffffffffffffffffffffff1602179055508060030160008154809291906107fd90611eeb565b9190505550600281600301540361081b57610819858584610f74565b505b5050505050565b60006101f48460000160007fb12aff7664b16cb99339be399b863feecd64d14817be7e1f042f97e3f358e64e60001b81526020019081526020016000208190555060008460000160007f05de9147d05477c0a5dc675aeea733157f5092f82add148cf39d579cafe3dc9860001b815260200190815260200160002060008154809291906108ae90611eeb565b91905055905060008560040160008381526020019081526020016000209050848160000190816108de919061216e565b50338160010160006101000a81548173ffffffffffffffffffffffffffffffffffffffff021916908373ffffffffffffffffffffffffffffffffffffffff1602179055508181600201819055504281600a0160007f0f3fe971129295ad98fb77108128ec4c94083ec495d6ae9d7f14797c097eba9160001b8152602001908152602001600020819055508381600a0160007f9c35b68a5d39a44a5834c87c06e0905b483f5921b1cdeb093ce2cca2a2349a4c60001b815260200190815260200160002081905550856003018054905081600a0160007f1e344bd070f05f1c5b3f0b1266f4f20d837a0a8190a3a2da8b0375eac2ba86ea60001b81526020019081526020016000208190555060018160080160006101000a81548160ff02191690831515021790555060008660000160007f9d35db82da5d0cf70eb254e4850bba2332d9a0dd52374be5ffb3866e6f97269b60001b81526020019081526020016000205403610b2957428660000160007fde51f251916b3aa9a2c8ba3c001731c4a7abf4ab61324f8fa182ed1b3aca750e60001b815260200190815260200160002081905550818660000160007f7584d7d8701714da9c117f5bf30af73b0b88aca5338a84a21eb28de2fe0d93b860001b81526020019081526020016000208190555085600201548160010160009054906101000a900473ffffffffffffffffffffffffffffffffffffffff16600143610af79190611df6565b40604051602001610b0a939291906122b3565b6040516020818303038152906040528051906020012086600201819055505b6000805b8760030180549050811015610beb57876004016000896003018381548110610b5857610b57611ebc565b5b9060005260206000200154815260200190815260200160002060080160009054906101000a900460ff16610bd857876003018181548110610b9c57610b9b611ebc565b5b906000526020600020016000905583886003018281548110610bc157610bc0611ebc565b5b906000526020600020018190555060019150610beb565b8080610be390611eeb565b915050610b2d565b5080610c1d57866003018390806001815401808255809150506001900390600052602060002001600090919091909150555b8660000160007f9d35db82da5d0cf70eb254e4850bba2332d9a0dd52374be5ffb3866e6f97269b60001b81526020019081526020016000206000815480929190610c6690611eeb565b919050555060008514610c8157610c7f87333088610cc9565b505b7f1f46760a6aa40e5f71bd287c2777140ea72700cef65d5df08e529d23109a1cf0838787604051610cb4939291906122f0565b60405180910390a18293505050509392505050565b6000610cd785858585610cfc565b60019050949350505050565b6000610cf184338585610cfc565b600190509392505050565b6000811015610d40576040517f08c379a0000000000000000000000000000000000000000000000000000000008152600401610d37906123a0565b60405180910390fd5b80610d4b858561169c565b1015610d8c576040517f08c379a0000000000000000000000000000000000000000000000000000000008152600401610d839061240c565b60405180910390fd5b808460050160008573ffffffffffffffffffffffffffffffffffffffff1673ffffffffffffffffffffffffffffffffffffffff1681526020019081526020016000206000828254610ddd9190611df6565b92505081905550808460050160008473ffffffffffffffffffffffffffffffffffffffff1673ffffffffffffffffffffffffffffffffffffffff1681526020019081526020016000206000828254610e35919061242c565b925050819055508173ffffffffffffffffffffffffffffffffffffffff168373ffffffffffffffffffffffffffffffffffffffff167fddf252ad1be2c89b69c2b068fc378daa952ba7f163c4a11628f55a4df523b3ef83604051610e999190611c02565b60405180910390a350505050565b60008260000160007fb12aff7664b16cb99339be399b863feecd64d14817be7e1f042f97e3f358e64e60001b815260200190815260200160002054836002015460001c610ef4919061248f565b9050600083600201543384604051602001610f11939291906124e1565b6040516020818303038152906040528051906020012060001c9050808211610f6e576040517f08c379a0000000000000000000000000000000000000000000000000000000008152600401610f6590612590565b60405180910390fd5b50505050565b6000808460040160008581526020019081526020016000209050600f8560000160007fde51f251916b3aa9a2c8ba3c001731c4a7abf4ab61324f8fa182ed1b3aca750e60001b81526020019081526020016000205442610fd49190611df6565b101561102d578460000160007fb12aff7664b16cb99339be399b863feecd64d14817be7e1f042f97e3f358e64e60001b8152602001908152602001600020600081548092919061102390611eeb565b91905055506110b8565b61107b6001808760000160007fb12aff7664b16cb99339be399b863feecd64d14817be7e1f042f97e3f358e64e60001b8152602001908152602001600020546110769190611df6565b6116e8565b8560000160007fb12aff7664b16cb99339be399b863feecd64d14817be7e1f042f97e3f358e64e60001b8152602001908152602001600020819055505b60008060005b6002811015611166576000805b600281101561112b578560040181600281106110ea576110e9611ebc565b5b015486600401846002811061110257611101611ebc565b5b01540361111857818061111490611eeb565b9250505b808061112390611eeb565b9150506110cb565b50828111156111525780925084600401826002811061114d5761114c611ebc565b5b015493505b50808061115e90611eeb565b9150506110be565b5060008360010160009054906101000a900473ffffffffffffffffffffffffffffffffffffffff1673ffffffffffffffffffffffffffffffffffffffff1687846040516024016111b79291906125b0565b6040516020818303038152906040527f20b00699000000000000000000000000000000000000000000000000000000007bffffffffffffffffffffffffffffffffffffffffffffffffffffffff19166020820180517bffffffffffffffffffffffffffffffffffffffffffffffffffffffff83818316178352505050506040516112419190612620565b6000604051808303816000865af19150503d806000811461127e576040519150601f19603f3d011682016040523d82523d6000602084013e611283565b606091505b50509050806112c7576040517f08c379a00000000000000000000000000000000000000000000000000000000081526004016112be90612683565b60405180910390fd5b60005b60028110156113b15761139d89308760060184600281106112ee576112ed611ebc565b5b0160009054906101000a900473ffffffffffffffffffffffffffffffffffffffff168c60000160007f594d34f771ec633c2f562d96c03f9299763555317b87ad49b1aa8c08079dde0e60001b81526020019081526020016000205460058a600a0160007f9c35b68a5d39a44a5834c87c06e0905b483f5921b1cdeb093ce2cca2a2349a4c60001b81526020019081526020016000205461138e919061248f565b611398919061242c565b610cc9565b5080806113a990611eeb565b9150506112ca565b50680d8d726b7177a800008860000160007f7c80aa9fdbfaf9615e4afc7f5f722e265daca5ccc655360fa5ccacf9c267936d60001b81526020019081526020016000206000828254611403919061242c565b9250508190555060008460080160006101000a81548160ff0219169083151502179055508760040160008881526020019081526020016000206000808201600061144d9190611961565b6001820160006101000a81549073ffffffffffffffffffffffffffffffffffffffff02191690556002820160009055600382016000905560048201600061149491906119a1565b6006820160006114a491906119af565b6008820160006101000a81549060ff021916905550508760000160007f9d35db82da5d0cf70eb254e4850bba2332d9a0dd52374be5ffb3866e6f97269b60001b81526020019081526020016000206000815480929190611503906126a3565b919050555060008860000160007f9d35db82da5d0cf70eb254e4850bba2332d9a0dd52374be5ffb3866e6f97269b60001b8152602001908152602001600020541461161357428860000160007fde51f251916b3aa9a2c8ba3c001731c4a7abf4ab61324f8fa182ed1b3aca750e60001b8152602001908152602001600020819055508760020154866001436115989190611df6565b406040516020016115ab939291906126cc565b6040516020818303038152906040528051906020012088600201819055506115d288611701565b8860000160007f7584d7d8701714da9c117f5bf30af73b0b88aca5338a84a21eb28de2fe0d93b860001b815260200190815260200160002081905550611652565b60008860000160007f7584d7d8701714da9c117f5bf30af73b0b88aca5338a84a21eb28de2fe0d93b860001b8152602001908152602001600020819055505b7f53a45750a388f2e04d6dfff1108fb3a62e4d65fd986766ed1b19e5ea96ec4e5887848860405161168593929190612709565b60405180910390a160019450505050509392505050565b60008260050160008373ffffffffffffffffffffffffffffffffffffffff1673ffffffffffffffffffffffffffffffffffffffff16815260200190815260200160002054905092915050565b60008183116116f757816116f9565b825b905092915050565b600080600090506000805b84600301805490508110156118e5578285600401600087600301848154811061173857611737611ebc565b5b90600052602060002001548152602001908152602001600020600a0160007f0f3fe971129295ad98fb77108128ec4c94083ec495d6ae9d7f14797c097eba9160001b815260200190815260200160002054426117949190611df6565b8660040160008860030185815481106117b0576117af611ebc565b5b90600052602060002001548152602001908152602001600020600a0160007f9c35b68a5d39a44a5834c87c06e0905b483f5921b1cdeb093ce2cca2a2349a4c60001b81526020019081526020016000205461180b919061242c565b11801561185a575084600401600086600301838154811061182f5761182e611ebc565b5b9060005260206000200154815260200190815260200160002060080160009054906101000a900460ff165b156118d25784600401600086600301838154811061187b5761187a611ebc565b5b90600052602060002001548152602001908152602001600020600a0160007f9c35b68a5d39a44a5834c87c06e0905b483f5921b1cdeb093ce2cca2a2349a4c60001b81526020019081526020016000205492508091505b80806118dd90611eeb565b91505061170c565b508360030181815481106118fc576118fb611ebc565b5b9060005260206000200154925080846004016000858152602001908152602001600020600a0160007f1e344bd070f05f1c5b3f0b1266f4f20d837a0a8190a3a2da8b0375eac2ba86ea60001b8152602001908152602001600020819055505050919050565b50805461196d90611f91565b6000825580601f1061197f575061199e565b601f01602090049060005260206000209081019061199d91906119bd565b5b50565b506000815560010160009055565b506000815560010160009055565b5b808211156119d65760008160009055506001016119be565b5090565b600081519050919050565b600082825260208201905092915050565b60005b83811015611a145780820151818401526020810190506119f9565b60008484015250505050565b6000601f19601f8301169050919050565b6000611a3c826119da565b611a4681856119e5565b9350611a568185602086016119f6565b611a5f81611a20565b840191505092915050565b60006020820190508181036000830152611a848184611a31565b905092915050565b600080fd5b600080fd5b600073ffffffffffffffffffffffffffffffffffffffff82169050919050565b6000611ac182611a96565b9050919050565b611ad181611ab6565b8114611adc57600080fd5b50565b600081359050611aee81611ac8565b92915050565b6000819050919050565b611b0781611af4565b8114611b1257600080fd5b50565b600081359050611b2481611afe565b92915050565b60008060408385031215611b4157611b40611a8c565b5b6000611b4f85828601611adf565b9250506020611b6085828601611b15565b9150509250929050565b60008115159050919050565b611b7f81611b6a565b82525050565b6000602082019050611b9a6000830184611b76565b92915050565b600080600060608486031215611bb957611bb8611a8c565b5b6000611bc786828701611adf565b9350506020611bd886828701611adf565b9250506040611be986828701611b15565b9150509250925092565b611bfc81611af4565b82525050565b6000602082019050611c176000830184611bf3565b92915050565b600080600060608486031215611c3657611c35611a8c565b5b6000611c4486828701611b15565b9350506020611c5586828701611b15565b9250506040611c6686828701611b15565b9150509250925092565b600080fd5b600080fd5b600080fd5b60008083601f840112611c9557611c94611c70565b5b8235905067ffffffffffffffff811115611cb257611cb1611c75565b5b602083019150836001820283011115611cce57611ccd611c7a565b5b9250929050565b600080600060408486031215611cee57611ced611a8c565b5b600084013567ffffffffffffffff811115611d0c57611d0b611a91565b5b611d1886828701611c7f565b93509350506020611d2b86828701611b15565b9150509250925092565b7f6e6f7420616c6c6f77656420746f207472616e7366657220746865207370656360008201527f696669656420616d6f756e740000000000000000000000000000000000000000602082015250565b6000611d91602c836119e5565b9150611d9c82611d35565b604082019050919050565b60006020820190508181036000830152611dc081611d84565b9050919050565b7f4e487b7100000000000000000000000000000000000000000000000000000000600052601160045260246000fd5b6000611e0182611af4565b9150611e0c83611af4565b9250828203905081811115611e2457611e23611dc7565b5b92915050565b7f416c7265616479207375626d6974746564207468652076616c756520666f722060008201527f74686520726571756573742e0000000000000000000000000000000000000000602082015250565b6000611e86602c836119e5565b9150611e9182611e2a565b604082019050919050565b60006020820190508181036000830152611eb581611e79565b9050919050565b7f4e487b7100000000000000000000000000000000000000000000000000000000600052603260045260246000fd5b6000611ef682611af4565b91507fffffffffffffffffffffffffffffffffffffffffffffffffffffffffffffffff8203611f2857611f27611dc7565b5b600182019050919050565b7f4e487b7100000000000000000000000000000000000000000000000000000000600052604160045260246000fd5b7f4e487b7100000000000000000000000000000000000000000000000000000000600052602260045260246000fd5b60006002820490506001821680611fa957607f821691505b602082108103611fbc57611fbb611f62565b5b50919050565b60008190508160005260206000209050919050565b60006020601f8301049050919050565b600082821b905092915050565b6000600883026120247fffffffffffffffffffffffffffffffffffffffffffffffffffffffffffffffff82611fe7565b61202e8683611fe7565b95508019841693508086168417925050509392505050565b6000819050919050565b600061206b61206661206184611af4565b612046565b611af4565b9050919050565b6000819050919050565b61208583612050565b61209961209182612072565b848454611ff4565b825550505050565b600090565b6120ae6120a1565b6120b981848461207c565b505050565b5b818110156120dd576120d26000826120a6565b6001810190506120bf565b5050565b601f821115612122576120f381611fc2565b6120fc84611fd7565b8101602085101561210b578190505b61211f61211785611fd7565b8301826120be565b50505b505050565b600082821c905092915050565b600061214560001984600802612127565b1980831691505092915050565b600061215e8383612134565b9150826002028217905092915050565b612177826119da565b67ffffffffffffffff8111156121905761218f611f33565b5b61219a8254611f91565b6121a58282856120e1565b600060209050601f8311600181146121d857600084156121c6578287015190505b6121d08582612152565b865550612238565b601f1984166121e686611fc2565b60005b8281101561220e578489015182556001820191506020850194506020810190506121e9565b8683101561222b5784890151612227601f891682612134565b8355505b6001600288020188555050505b505050505050565b6000819050919050565b6000819050919050565b61226561226082612240565b61224a565b82525050565b60008160601b9050919050565b60006122838261226b565b9050919050565b600061229582612278565b9050919050565b6122ad6122a882611ab6565b61228a565b82525050565b60006122bf8286612254565b6020820191506122cf828561229c565b6014820191506122df8284612254565b602082019150819050949350505050565b60006060820190506123056000830186611bf3565b81810360208301526123178185611a31565b90506123266040830184611bf3565b949350505050565b7f5472616e7366657272696e672061206e6f6e20706f73697469766520616d6f7560008201527f6e74000000000000000000000000000000000000000000000000000000000000602082015250565b600061238a6022836119e5565b91506123958261232e565b604082019050919050565b600060208201905081810360008301526123b98161237d565b9050919050565b7f496e73756666696369656e74207472616e736665722062616c616e6365000000600082015250565b60006123f6601d836119e5565b9150612401826123c0565b602082019050919050565b60006020820190508181036000830152612425816123e9565b9050919050565b600061243782611af4565b915061244283611af4565b925082820190508082111561245a57612459611dc7565b5b92915050565b7f4e487b7100000000000000000000000000000000000000000000000000000000600052601260045260246000fd5b600061249a82611af4565b91506124a583611af4565b9250826124b5576124b4612460565b5b828204905092915050565b6000819050919050565b6124db6124d682611af4565b6124c0565b82525050565b60006124ed8286612254565b6020820191506124fd828561229c565b60148201915061250d82846124ca565b602082019150819050949350505050565b7f496e76616c6964206e6f6e636520666f72207468652063757272656e7420636860008201527f616c6c656e67652e000000000000000000000000000000000000000000000000602082015250565b600061257a6028836119e5565b91506125858261251e565b604082019050919050565b600060208201905081810360008301526125a98161256d565b9050919050565b60006040820190506125c56000830185611bf3565b6125d26020830184611bf3565b9392505050565b600081519050919050565b600081905092915050565b60006125fa826125d9565b61260481856125e4565b93506126148185602086016119f6565b80840191505092915050565b600061262c82846125ef565b915081905092915050565b7f4c6f77206c6576656c2063616c6c206661696c65642100000000000000000000600082015250565b600061266d6016836119e5565b915061267882612637565b602082019050919050565b6000602082019050818103600083015261269c81612660565b9050919050565b60006126ae82611af4565b9150600082036126c1576126c0611dc7565b5b600182039050919050565b60006126d88286612254565b6020820191506126e882856124ca565b6020820191506126f88284612254565b602082019150819050949350505050565b600060608201905061271e6000830186611bf3565b61272b6020830185611bf3565b6127386040830184611bf3565b94935050505056fea2646970667358221220676e1160abfb68db27187d7e3e5a195c15979a1521d0a1a1b243921d065436ca64736f6c63430008100033",
  "immutableReferences": {},
  "source": "// SPDX-License-Identifier: UNLICENSED\npragma solidity ^0.8.0;\nimport '../libraries/RequestDataStorageLib.sol';\nimport '../libraries/TokenTransferLib.sol';\nimport '../libraries/CoreFunctionsLib.sol';\n\ncontract CoreFunctions {\n\n    using CoreFunctionsLib for RequestDataStorageLib.RequestStorageStruct;\n    using TokenTransferLib for RequestDataStorageLib.RequestStorageStruct;\n\n    RequestDataStorageLib.RequestStorageStruct data;\n\n    function requestPrediction(string calldata _dataCID,uint256 _tip) external returns(uint256){\n        return data.requestPrediction(_dataCID, _tip);\n    }\n\n\n    function submitMiningSolution(uint256 _id, uint256 _prediction, uint256 _nonce) external {\n        data.submitMiningSolution(_id, _prediction, _nonce);\n    }\n\n\n    /* Utility token functions */\n    function name() external pure returns(string memory) {\n        return \"Arshu Token\";\n    }\n\n    function symbol() external pure returns(string memory) {\n        return \"ARS\";\n    }\n\n    function decimals() external pure returns(uint256) {\n        return 18;\n    }\n\n\n    function transferTest(address _to, uint256 _value) external returns(bool) {\n        return data.transferTest(_to, _value);\n    }\n\n\n    function transferFromTest(address _from, address _to, uint256 _value) external returns(bool) {\n        return data.transferFromTest(_from, _to, _value);\n    }\n\n    function transfer(address _to, uint256 _value) external returns(bool) {\n        return data.transfer(_to, _value);\n    }\n\n    function transferFrom(address _from, address _to, uint256 _value) external returns(bool) {\n        return data.transferFrom(_from, _to, _value);\n    }\n\n    function approve(address _spender, uint256 _value) external returns(bool){\n        return data.approve(_spender, _value);\n    }\n}\n",
  "sourcePath": "/home/arjun/Code/Projects/DappV1-NORSA/contracts/utils/CoreFunctions.sol",
  "compiler": {
    "name": "solc",
    "version": "0.8.16+commit.07a7930e.Emscripten.clang"
  },
  "schemaVersion": "3.4.13",
  "updatedAt": "2023-06-26T18:50:20.666Z",
  "networkType": "ethereum",
  "devdoc": {
    "kind": "dev",
    "methods": {},
    "version": 1
  },
  "userdoc": {
    "kind": "user",
    "methods": {},
    "version": 1
  }
}