{
  "contractName": "Main",
  "abi": [
    {
      "inputs": [
        {
          "internalType": "address",
          "name": "_implAddress",
          "type": "address"
        }
      ],
      "stateMutability": "nonpayable",
      "type": "constructor"
    },
    {
      "anonymous": false,
      "inputs": [
        {
          "indexed": false,
          "internalType": "address",
          "name": "newAddress",
          "type": "address"
        }
      ],
      "name": "EthMLContractChanged",
      "type": "event"
    },
    {
      "anonymous": false,
      "inputs": [
        {
          "indexed": false,
          "internalType": "string",
          "name": "dataCID",
          "type": "string"
        },
        {
          "indexed": false,
          "internalType": "uint256",
          "name": "tip",
          "type": "uint256"
        },
        {
          "indexed": false,
          "internalType": "uint256",
          "name": "requestId",
          "type": "uint256"
        }
      ],
      "name": "NewRequest",
      "type": "event"
    },
    {
      "anonymous": false,
      "inputs": [
        {
          "indexed": false,
          "internalType": "uint256",
          "name": "requestId",
          "type": "uint256"
        },
        {
          "indexed": false,
          "internalType": "uint256",
          "name": "prediction",
          "type": "uint256"
        }
      ],
      "name": "ReceivedPrediction",
      "type": "event"
    },
    {
      "inputs": [
        {
          "internalType": "string",
          "name": "_dataCID",
          "type": "string"
        },
        {
          "internalType": "uint256",
          "name": "_tip",
          "type": "uint256"
        }
      ],
      "name": "requestPrediction",
      "outputs": [],
      "stateMutability": "nonpayable",
      "type": "function"
    },
    {
      "inputs": [
        {
          "internalType": "uint256",
          "name": "_id",
          "type": "uint256"
        },
        {
          "internalType": "uint256",
          "name": "_prediction",
          "type": "uint256"
        }
      ],
      "name": "requestCallback",
      "outputs": [],
      "stateMutability": "nonpayable",
      "type": "function"
    },
    {
      "inputs": [
        {
          "internalType": "bytes32",
          "name": "_passCode",
          "type": "bytes32"
        }
      ],
      "name": "getLatestResponse",
      "outputs": [
        {
          "internalType": "uint256",
          "name": "",
          "type": "uint256"
        }
      ],
      "stateMutability": "view",
      "type": "function",
      "constant": true
    }
  ],
  "bytecode": "0x608060405234801561001057600080fd5b50604051610a7b380380610a7b8339818101604052810190610032919061011c565b336000806101000a81548173ffffffffffffffffffffffffffffffffffffffff021916908373ffffffffffffffffffffffffffffffffffffffff16021790555080600160006101000a81548173ffffffffffffffffffffffffffffffffffffffff021916908373ffffffffffffffffffffffffffffffffffffffff16021790555050610149565b600080fd5b600073ffffffffffffffffffffffffffffffffffffffff82169050919050565b60006100e9826100be565b9050919050565b6100f9816100de565b811461010457600080fd5b50565b600081519050610116816100f0565b92915050565b600060208284031215610132576101316100b9565b5b600061014084828501610107565b91505092915050565b610923806101586000396000f3fe608060405234801561001057600080fd5b50600436106100415760003560e01c806320b00699146100465780634978f7801461006257806371f4ed5e14610092575b600080fd5b610060600480360381019061005b9190610496565b6100ae565b005b61007c6004803603810190610077919061050c565b61021f565b6040516100899190610548565b60405180910390f35b6100ac60048036038101906100a791906105c8565b610282565b005b816002600082815260200190815260200160002060009054906101000a900460ff1661010f576040517f08c379a000000000000000000000000000000000000000000000000000000000815260040161010690610685565b60405180910390fd5b600160009054906101000a900473ffffffffffffffffffffffffffffffffffffffff1673ffffffffffffffffffffffffffffffffffffffff163373ffffffffffffffffffffffffffffffffffffffff161461019f576040517f08c379a0000000000000000000000000000000000000000000000000000000008152600401610196906106f1565b60405180910390fd5b826004819055506002600084815260200190815260200160002060006101000a81549060ff02191690558160036000858152602001908152602001600020819055507f10d5e01edbb6c1b87b2d5d9b11d10bd3965b54d0eaab93abb9804a8b5b87cb688383604051610212929190610711565b60405180910390a1505050565b60006005548214610265576040517f08c379a000000000000000000000000000000000000000000000000000000000815260040161025c90610786565b60405180910390fd5b600360006004548152602001908152602001600020549050919050565b6102cf83838080601f016020809104026020016040519081016040528093929190818152602001838380828437600081840152601f19601f82011690508083019250505050505050610421565b6005819055506000600160009054906101000a900473ffffffffffffffffffffffffffffffffffffffff1690506000848484604051602401610313939291906107f3565b6040516020818303038152906040527f71f4ed5e000000000000000000000000000000000000000000000000000000007bffffffffffffffffffffffffffffffffffffffffffffffffffffffff19166020820180517bffffffffffffffffffffffffffffffffffffffffffffffffffffffff8381831617835250505050905060006040516000808451602086016000885af13d6000833e81519250505060016002600083815260200190815260200160002060006101000a81548160ff0219169083151502179055507fdd769ef05d7f927a4b3cda8431196b9400f664392f76e581b77f9f64042487e6868686846040516104119493929190610825565b60405180910390a1505050505050565b6000808260405160200161043591906108d6565b60405160208183030381529060405280519060200120905080915050919050565b600080fd5b600080fd5b6000819050919050565b61047381610460565b811461047e57600080fd5b50565b6000813590506104908161046a565b92915050565b600080604083850312156104ad576104ac610456565b5b60006104bb85828601610481565b92505060206104cc85828601610481565b9150509250929050565b6000819050919050565b6104e9816104d6565b81146104f457600080fd5b50565b600081359050610506816104e0565b92915050565b60006020828403121561052257610521610456565b5b6000610530848285016104f7565b91505092915050565b61054281610460565b82525050565b600060208201905061055d6000830184610539565b92915050565b600080fd5b600080fd5b600080fd5b60008083601f84011261058857610587610563565b5b8235905067ffffffffffffffff8111156105a5576105a4610568565b5b6020830191508360018202830111156105c1576105c061056d565b5b9250929050565b6000806000604084860312156105e1576105e0610456565b5b600084013567ffffffffffffffff8111156105ff576105fe61045b565b5b61060b86828701610572565b9350935050602061061e86828701610481565b9150509250925092565b600082825260208201905092915050565b7f496e76616c696420726571756573742069642100000000000000000000000000600082015250565b600061066f601383610628565b915061067a82610639565b602082019050919050565b6000602082019050818103600083015261069e81610662565b9050919050565b7f4e6f7420617574686f72697a6564210000000000000000000000000000000000600082015250565b60006106db600f83610628565b91506106e6826106a5565b602082019050919050565b6000602082019050818103600083015261070a816106ce565b9050919050565b60006040820190506107266000830185610539565b6107336020830184610539565b9392505050565b7f4e6f206175746800000000000000000000000000000000000000000000000000600082015250565b6000610770600783610628565b915061077b8261073a565b602082019050919050565b6000602082019050818103600083015261079f81610763565b9050919050565b82818337600083830152505050565b6000601f19601f8301169050919050565b60006107d28385610628565b93506107df8385846107a6565b6107e8836107b5565b840190509392505050565b6000604082019050818103600083015261080e8185876107c6565b905061081d6020830184610539565b949350505050565b600060608201905081810360008301526108408186886107c6565b905061084f6020830185610539565b61085c6040830184610539565b95945050505050565b600081519050919050565b600081905092915050565b60005b8381101561089957808201518184015260208101905061087e565b60008484015250505050565b60006108b082610865565b6108ba8185610870565b93506108ca81856020860161087b565b80840191505092915050565b60006108e282846108a5565b91508190509291505056fea264697066735822122079d295ca3d57fb5f02f3172ec8e7e124507ec3847262a1d1091b870b385227bf64736f6c63430008100033",
  "immutableReferences": {},
  "source": "// SPDX-License-Identifier: MIT\npragma solidity ^0.8.0;\n\n\ncontract Main {\n\n  address owner;\n  address implAddress;\n\n  mapping(uint256 => bool) pendingRequests;\n  mapping(uint256 => uint256) responses;\n\n  uint256 latestResponseId;\n\n  bytes32 private passCode;\n\n  event NewRequest(string dataCID, uint256 tip, uint256 requestId);\n  event ReceivedPrediction(uint256 requestId, uint256 prediction);\n  event EthMLContractChanged(address newAddress);\n\n  constructor(address _implAddress)  {\n    owner = msg.sender;\n    implAddress = _implAddress;\n  }\n\n  //Create passWord for user \n  function convertToBytes32(string memory input) private pure returns (bytes32) {\n        bytes32 result = keccak256(abi.encodePacked(input));\n        return result;\n    }\n  /**\n  * @notice Change to internal\n  * @dev sends prediction request to proxy.\n  */\n  function requestPrediction(string calldata _dataCID, uint256 _tip) external {\n\n    //Create passCode \n    passCode = convertToBytes32(_dataCID);\n\n    address _impl = implAddress;\n    bytes memory _calldata = abi.encodeWithSignature('requestPrediction(string,uint256)', _dataCID, _tip);\n    uint256 _id;\n\n    assembly {\n      let ptr := mload(0x40)\n      let result := call(gas(), _impl, 0, add(_calldata, 32), mload(_calldata), 0, 0)\n      returndatacopy(ptr, 0, returndatasize())\n      _id := mload(ptr)\n    }\n\n    pendingRequests[_id] = true;\n    emit NewRequest( _dataCID, _tip, _id);\n  }\n\n  //submit sol\n  function requestCallback(uint256 _id, uint256 _prediction) external isValidCall(_id){\n    latestResponseId = _id;\n    delete pendingRequests[_id];\n    responses[_id] = _prediction;\n\n    emit ReceivedPrediction(_id, _prediction);\n  }\n\n\n  function getLatestResponse(bytes32 _passCode) external view returns(uint256) {\n    require(_passCode == passCode, \"No auth\");\n    return responses[latestResponseId];\n  }\n\n  modifier isValidCall(uint256 _id) {\n    require(pendingRequests[_id], \"Invalid request id!\");\n    require(msg.sender == implAddress, \"Not authorized!\");\n    _;\n  }\n}\n",
  "sourcePath": "/home/arjun/Code/Projects/DappV1-NORSA/contracts/main/Main.sol",
  "compiler": {
    "name": "solc",
    "version": "0.8.16+commit.07a7930e.Emscripten.clang"
  },
  "schemaVersion": "3.4.13",
  "updatedAt": "2023-06-26T18:50:20.676Z",
  "networkType": "ethereum",
  "devdoc": {
    "kind": "dev",
    "methods": {
      "requestPrediction(string,uint256)": {
        "details": "sends prediction request to proxy."
      }
    },
    "version": 1
  },
  "userdoc": {
    "kind": "user",
    "methods": {
      "requestPrediction(string,uint256)": {
        "notice": "Change to internal"
      }
    },
    "version": 1
  }
}